{
  "contractName": "SnoutToken",
  "abi": [
    {
      "inputs": [],
      "payable": false,
      "stateMutability": "nonpayable",
      "type": "constructor"
    },
    {
      "constant": true,
      "inputs": [],
      "name": "totalSupply",
      "outputs": [
        {
          "internalType": "uint256",
          "name": "",
          "type": "uint256"
        }
      ],
      "payable": false,
      "stateMutability": "view",
      "type": "function"
    }
  ],
  "bytecode": "0x6080604052348015600f57600080fd5b50620f42406000819055506084806100286000396000f3fe6080604052348015600f57600080fd5b506004361060285760003560e01c806318160ddd14602d575b600080fd5b60336049565b6040518082815260200191505060405180910390f35b6000548156fea265627a7a72315820c4d68d382ab239fac2da0e8b9ed2b691399701b27284345672b28cd735e21b9964736f6c63430005100032",
  "source": "pragma solidity ^0.5.16;\n\ncontract SnoutToken {\n\t//constructor\n\n\tuint256 public totalSupply;\n\n\tconstructor() public {\n\t\t//state variable. accessible by all. kind of like a class variable. \n\t\t//this will write to storage/blockchain\n\t\ttotalSupply = 1000000;\n\t}\n\t//you don't need a getter for a public variable.\n\t//getters and setters\n\n}",
  "sourcePath": "/Users/khorykotowski/Documents/crypto_project/token_sale/contracts/SnoutToken.sol",
  "compiler": {
    "name": "solc",
    "version": "0.5.16+commit.9c3226ce.Emscripten.clang"
  },
  "schemaVersion": "3.0.21",
  "updatedAt": "2020-01-22T20:22:00.842Z",
  "networkType": "ethereum",
  "devdoc": {
    "methods": {}
  },
  "userdoc": {
    "methods": {}
  }
}